{
  "_format": "hh-sol-artifact-1",
  "contractName": "Dwetransfer",
  "sourceName": "contracts/Greeter.sol",
  "abi": [
    {
      "inputs": [],
      "stateMutability": "nonpayable",
      "type": "constructor"
    },
    {
      "inputs": [
        {
          "internalType": "address payable",
          "name": "_uploader_address",
          "type": "address"
        },
        {
          "internalType": "uint256",
          "name": "_file_id",
          "type": "uint256"
        }
      ],
      "name": "downloadFile",
      "outputs": [],
      "stateMutability": "payable",
      "type": "function"
    },
    {
      "inputs": [
        {
          "internalType": "uint256",
          "name": "",
          "type": "uint256"
        }
      ],
      "name": "files",
      "outputs": [
        {
          "internalType": "uint256",
          "name": "id",
          "type": "uint256"
        },
        {
          "internalType": "string",
          "name": "cid",
          "type": "string"
        }
      ],
      "stateMutability": "view",
      "type": "function"
    },
    {
      "inputs": [
        {
          "internalType": "uint256",
          "name": "_file_id",
          "type": "uint256"
        },
        {
          "internalType": "string",
          "name": "_file_cid",
          "type": "string"
        }
      ],
      "name": "uploadFile",
      "outputs": [],
      "stateMutability": "payable",
      "type": "function"
    },
    {
      "inputs": [
        {
          "internalType": "address",
          "name": "",
          "type": "address"
        }
      ],
      "name": "uploads",
      "outputs": [
        {
          "internalType": "uint256",
          "name": "",
          "type": "uint256"
        }
      ],
      "stateMutability": "view",
      "type": "function"
    }
  ],
  "bytecode": "0x608060405234801561001057600080fd5b50336000806101000a81548173ffffffffffffffffffffffffffffffffffffffff021916908373ffffffffffffffffffffffffffffffffffffffff160217905550610c2a806100606000396000f3fe60806040526004361061003f5760003560e01c8063241f5eed146100445780632784953714610060578063f4c714b41461009d578063fa4d14ce146100db575b600080fd5b61005e600480360381019061005991906106ff565b6100f7565b005b34801561006c57600080fd5b50610087600480360381019061008291906106d6565b610270565b60405161009491906108c9565b60405180910390f35b3480156100a957600080fd5b506100c460048036038101906100bf919061073b565b610288565b6040516100d29291906108e4565b60405180910390f35b6100f560048036038101906100f09190610764565b610334565b005b80600560008473ffffffffffffffffffffffffffffffffffffffff1673ffffffffffffffffffffffffffffffffffffffff1681526020019081526020016000205414610178576040517f08c379a000000000000000000000000000000000000000000000000000000000815260040161016f90610889565b60405180910390fd5b600a3410156101bc576040517f08c379a00000000000000000000000000000000000000000000000000000000081526004016101b3906108a9565b60405180910390fd5b8173ffffffffffffffffffffffffffffffffffffffff166108fc60089081150290604051600060405180830381858888f19350505050158015610203573d6000803e3d6000fd5b5060008054906101000a900473ffffffffffffffffffffffffffffffffffffffff1673ffffffffffffffffffffffffffffffffffffffff166108fc60029081150290604051600060405180830381858888f1935050505015801561026b573d6000803e3d6000fd5b505050565b60056020528060005260406000206000915090505481565b60046020528060005260406000206000915090508060000154908060010180546102b190610a16565b80601f01602080910402602001604051908101604052809291908181526020018280546102dd90610a16565b801561032a5780601f106102ff5761010080835404028352916020019161032a565b820191906000526020600020905b81548152906001019060200180831161030d57829003601f168201915b5050505050905082565b6064341015610378576040517f08c379a000000000000000000000000000000000000000000000000000000000815260040161036f90610869565b60405180910390fd5b60008054906101000a900473ffffffffffffffffffffffffffffffffffffffff1673ffffffffffffffffffffffffffffffffffffffff166108fc349081150290604051600060405180830381858888f193505050501580156103de573d6000803e3d6000fd5b5081600160000181905550806001800190805190602001906104019291906104ad565b50600160046000600160000154815260200190815260200160002060008201548160000155600182018160010190805461043a90610a16565b610445929190610533565b50600282018160020190805461045c9291906105c0565b50905050600160000154600560003373ffffffffffffffffffffffffffffffffffffffff1673ffffffffffffffffffffffffffffffffffffffff168152602001908152602001600020819055505050565b8280546104b990610a16565b90600052602060002090601f0160209004810192826104db5760008555610522565b82601f106104f457805160ff1916838001178555610522565b82800160010185558215610522579182015b82811115610521578251825591602001919060010190610506565b5b50905061052f9190610612565b5090565b82805461053f90610a16565b90600052602060002090601f01602090048101928261056157600085556105af565b82601f1061057257805485556105af565b828001600101855582156105af57600052602060002091601f016020900482015b828111156105ae578254825591600101919060010190610593565b5b5090506105bc9190610612565b5090565b8280548282559060005260206000209081019282156106015760005260206000209182015b828111156106005782548255916001019190600101906105e5565b5b50905061060e9190610612565b5090565b5b8082111561062b576000816000905550600101610613565b5090565b600061064261063d84610939565b610914565b90508281526020810184848401111561065a57600080fd5b6106658482856109d4565b509392505050565b60008135905061067c81610baf565b92915050565b60008135905061069181610bc6565b92915050565b600082601f8301126106a857600080fd5b81356106b884826020860161062f565b91505092915050565b6000813590506106d081610bdd565b92915050565b6000602082840312156106e857600080fd5b60006106f68482850161066d565b91505092915050565b6000806040838503121561071257600080fd5b600061072085828601610682565b9250506020610731858286016106c1565b9150509250929050565b60006020828403121561074d57600080fd5b600061075b848285016106c1565b91505092915050565b6000806040838503121561077757600080fd5b6000610785858286016106c1565b925050602083013567ffffffffffffffff8111156107a257600080fd5b6107ae85828601610697565b9150509250929050565b60006107c38261096a565b6107cd8185610975565b93506107dd8185602086016109e3565b6107e681610ad7565b840191505092915050565b60006107fe602983610975565b915061080982610ae8565b604082019050919050565b6000610821602683610975565b915061082c82610b37565b604082019050919050565b6000610844601f83610975565b915061084f82610b86565b602082019050919050565b610863816109ca565b82525050565b60006020820190508181036000830152610882816107f1565b9050919050565b600060208201905081810360008301526108a281610814565b9050919050565b600060208201905081810360008301526108c281610837565b9050919050565b60006020820190506108de600083018461085a565b92915050565b60006040820190506108f9600083018561085a565b818103602083015261090b81846107b8565b90509392505050565b600061091e61092f565b905061092a8282610a48565b919050565b6000604051905090565b600067ffffffffffffffff82111561095457610953610aa8565b5b61095d82610ad7565b9050602081019050919050565b600081519050919050565b600082825260208201905092915050565b6000610991826109aa565b9050919050565b60006109a3826109aa565b9050919050565b600073ffffffffffffffffffffffffffffffffffffffff82169050919050565b6000819050919050565b82818337600083830152505050565b60005b83811015610a015780820151818401526020810190506109e6565b83811115610a10576000848401525b50505050565b60006002820490506001821680610a2e57607f821691505b60208210811415610a4257610a41610a79565b5b50919050565b610a5182610ad7565b810181811067ffffffffffffffff82111715610a7057610a6f610aa8565b5b80604052505050565b7f4e487b7100000000000000000000000000000000000000000000000000000000600052602260045260246000fd5b7f4e487b7100000000000000000000000000000000000000000000000000000000600052604160045260246000fd5b6000601f19601f8301169050919050565b7f596f75206e656564206174206c65617374203130302077656920696e20796f7560008201527f72206163636f756e740000000000000000000000000000000000000000000000602082015250565b7f5468652066696c6520796f752072657175657374656420646f6573206e6f742060008201527f65786973742e0000000000000000000000000000000000000000000000000000602082015250565b7f596f75206e65656420746f20706179203130207765692065786163746c792e00600082015250565b610bb881610986565b8114610bc357600080fd5b50565b610bcf81610998565b8114610bda57600080fd5b50565b610be6816109ca565b8114610bf157600080fd5b5056fea2646970667358221220f1a62c7c781bee29faa4bc832eb3f36e9394b1ec69f4ef1532131ae5adbc757964736f6c63430008040033",
  "linkReferences": {},
  "deployedLinkReferences": {}
}