{
  "_format": "hh-sol-artifact-1",
  "contractName": "Dwetransfer",
  "sourceName": "contracts/Greeter.sol",
  "abi": [
    {
      "inputs": [],
      "stateMutability": "nonpayable",
      "type": "constructor"
    },
    {
      "inputs": [
        {
          "internalType": "address payable",
          "name": "_uploader_address",
          "type": "address"
        },
        {
          "internalType": "uint256",
          "name": "_file_id",
          "type": "uint256"
        }
      ],
      "name": "downloadFile",
      "outputs": [],
      "stateMutability": "payable",
      "type": "function"
    },
    {
      "inputs": [
        {
          "internalType": "address",
          "name": "",
          "type": "address"
        }
      ],
      "name": "files",
      "outputs": [
        {
          "internalType": "uint256",
          "name": "id",
          "type": "uint256"
        },
        {
          "internalType": "string",
          "name": "cid",
          "type": "string"
        }
      ],
      "stateMutability": "view",
      "type": "function"
    },
    {
      "inputs": [
        {
          "internalType": "uint256",
          "name": "_file_id",
          "type": "uint256"
        },
        {
          "internalType": "string",
          "name": "_file_cid",
          "type": "string"
        }
      ],
      "name": "uploadFile",
      "outputs": [],
      "stateMutability": "payable",
      "type": "function"
    }
  ],
  "bytecode": "0x608060405273cd3b766ccdd6ae721141f452c550ca635964ce716000806101000a81548173ffffffffffffffffffffffffffffffffffffffff021916908373ffffffffffffffffffffffffffffffffffffffff16021790555034801561006457600080fd5b50610b53806100746000396000f3fe6080604052600436106100345760003560e01c8063241f5eed1461003957806339c637df14610055578063fa4d14ce14610093575b600080fd5b610053600480360381019061004e9190610646565b6100af565b005b34801561006157600080fd5b5061007c6004803603810190610077919061061d565b61022a565b60405161008a9291906107e7565b60405180910390f35b6100ad60048036038101906100a89190610682565b6102d6565b005b80600160008473ffffffffffffffffffffffffffffffffffffffff1673ffffffffffffffffffffffffffffffffffffffff1681526020019081526020016000206000015414610133576040517f08c379a000000000000000000000000000000000000000000000000000000000815260040161012a906107c7565b60405180910390fd5b600a3411610176576040517f08c379a000000000000000000000000000000000000000000000000000000000815260040161016d906107a7565b60405180910390fd5b8173ffffffffffffffffffffffffffffffffffffffff166108fc60089081150290604051600060405180830381858888f193505050501580156101bd573d6000803e3d6000fd5b5060008054906101000a900473ffffffffffffffffffffffffffffffffffffffff1673ffffffffffffffffffffffffffffffffffffffff166108fc60029081150290604051600060405180830381858888f19350505050158015610225573d6000803e3d6000fd5b505050565b600160205280600052604060002060009150905080600001549080600101805461025390610919565b80601f016020809104026020016040519081016040528092919081815260200182805461027f90610919565b80156102cc5780601f106102a1576101008083540402835291602001916102cc565b820191906000526020600020905b8154815290600101906020018083116102af57829003601f168201915b5050505050905082565b60643411610319576040517f08c379a000000000000000000000000000000000000000000000000000000000815260040161031090610787565b60405180910390fd5b60008054906101000a900473ffffffffffffffffffffffffffffffffffffffff1673ffffffffffffffffffffffffffffffffffffffff166108fc60649081150290604051600060405180830381858888f19350505050158015610380573d6000803e3d6000fd5b50610389610428565b8281600001818152505081816020018190525080600160003373ffffffffffffffffffffffffffffffffffffffff1673ffffffffffffffffffffffffffffffffffffffff168152602001908152602001600020600082015181600001556020820151816001019080519060200190610402929190610449565b50604082015181600201908051906020019061041f9291906104cf565b50905050505050565b60405180606001604052806000815260200160608152602001606081525090565b82805461045590610919565b90600052602060002090601f01602090048101928261047757600085556104be565b82601f1061049057805160ff19168380011785556104be565b828001600101855582156104be579182015b828111156104bd5782518255916020019190600101906104a2565b5b5090506104cb9190610559565b5090565b828054828255906000526020600020908101928215610548579160200282015b828111156105475782518260006101000a81548173ffffffffffffffffffffffffffffffffffffffff021916908373ffffffffffffffffffffffffffffffffffffffff160217905550916020019190600101906104ef565b5b5090506105559190610559565b5090565b5b8082111561057257600081600090555060010161055a565b5090565b60006105896105848461083c565b610817565b9050828152602081018484840111156105a157600080fd5b6105ac8482856108d7565b509392505050565b6000813590506105c381610ad8565b92915050565b6000813590506105d881610aef565b92915050565b600082601f8301126105ef57600080fd5b81356105ff848260208601610576565b91505092915050565b60008135905061061781610b06565b92915050565b60006020828403121561062f57600080fd5b600061063d848285016105b4565b91505092915050565b6000806040838503121561065957600080fd5b6000610667858286016105c9565b925050602061067885828601610608565b9150509250929050565b6000806040838503121561069557600080fd5b60006106a385828601610608565b925050602083013567ffffffffffffffff8111156106c057600080fd5b6106cc858286016105de565b9150509250929050565b60006106e18261086d565b6106eb8185610878565b93506106fb8185602086016108e6565b610704816109da565b840191505092915050565b600061071c602983610878565b9150610727826109eb565b604082019050919050565b600061073f602883610878565b915061074a82610a3a565b604082019050919050565b6000610762602583610878565b915061076d82610a89565b604082019050919050565b610781816108cd565b82525050565b600060208201905081810360008301526107a08161070f565b9050919050565b600060208201905081810360008301526107c081610732565b9050919050565b600060208201905081810360008301526107e081610755565b9050919050565b60006040820190506107fc6000830185610778565b818103602083015261080e81846106d6565b90509392505050565b6000610821610832565b905061082d828261094b565b919050565b6000604051905090565b600067ffffffffffffffff821115610857576108566109ab565b5b610860826109da565b9050602081019050919050565b600081519050919050565b600082825260208201905092915050565b6000610894826108ad565b9050919050565b60006108a6826108ad565b9050919050565b600073ffffffffffffffffffffffffffffffffffffffff82169050919050565b6000819050919050565b82818337600083830152505050565b60005b838110156109045780820151818401526020810190506108e9565b83811115610913576000848401525b50505050565b6000600282049050600182168061093157607f821691505b602082108114156109455761094461097c565b5b50919050565b610954826109da565b810181811067ffffffffffffffff82111715610973576109726109ab565b5b80604052505050565b7f4e487b7100000000000000000000000000000000000000000000000000000000600052602260045260246000fd5b7f4e487b7100000000000000000000000000000000000000000000000000000000600052604160045260246000fd5b6000601f19601f8301169050919050565b7f596f75206e656564206174206c65617374203130302077656920696e20796f7560008201527f72206163636f756e740000000000000000000000000000000000000000000000602082015250565b7f596f75206e656564206174206c656173742031302077656920696e20796f757260008201527f206163636f756e74000000000000000000000000000000000000000000000000602082015250565b7f5468652066696c6520796f752072657175657374656420646f6573206e6f742060008201527f6578697374000000000000000000000000000000000000000000000000000000602082015250565b610ae181610889565b8114610aec57600080fd5b50565b610af88161089b565b8114610b0357600080fd5b50565b610b0f816108cd565b8114610b1a57600080fd5b5056fea26469706673582212206ce0a614ddb3d44151d5f69655965a27de7e341a4b8b18d956adc50c7f92d94364736f6c63430008040033",
  "linkReferences": {},
  "deployedLinkReferences": {}
}