{
  "_format": "hh-sol-artifact-1",
  "contractName": "Dwetransfer",
  "sourceName": "contracts/Dwetransfer.sol",
  "abi": [
    {
      "inputs": [],
      "stateMutability": "payable",
      "type": "constructor"
    },
    {
      "anonymous": false,
      "inputs": [
        {
          "components": [
            {
              "internalType": "uint256",
              "name": "id",
              "type": "uint256"
            },
            {
              "internalType": "string",
              "name": "cid",
              "type": "string"
            },
            {
              "internalType": "address[]",
              "name": "downloaders",
              "type": "address[]"
            },
            {
              "internalType": "address",
              "name": "uploader",
              "type": "address"
            }
          ],
          "indexed": false,
          "internalType": "struct Dwetransfer.File",
          "name": "file",
          "type": "tuple"
        }
      ],
      "name": "FileDownload",
      "type": "event"
    },
    {
      "anonymous": false,
      "inputs": [
        {
          "components": [
            {
              "internalType": "uint256",
              "name": "id",
              "type": "uint256"
            },
            {
              "internalType": "string",
              "name": "cid",
              "type": "string"
            },
            {
              "internalType": "address[]",
              "name": "downloaders",
              "type": "address[]"
            },
            {
              "internalType": "address",
              "name": "uploader",
              "type": "address"
            }
          ],
          "indexed": false,
          "internalType": "struct Dwetransfer.File",
          "name": "file",
          "type": "tuple"
        }
      ],
      "name": "FileUploaded",
      "type": "event"
    },
    {
      "inputs": [
        {
          "internalType": "uint256",
          "name": "_file_id",
          "type": "uint256"
        }
      ],
      "name": "downloadFile",
      "outputs": [
        {
          "internalType": "string",
          "name": "",
          "type": "string"
        }
      ],
      "stateMutability": "payable",
      "type": "function"
    },
    {
      "inputs": [],
      "name": "fileId",
      "outputs": [
        {
          "internalType": "uint256",
          "name": "",
          "type": "uint256"
        }
      ],
      "stateMutability": "view",
      "type": "function"
    },
    {
      "inputs": [
        {
          "internalType": "uint256",
          "name": "",
          "type": "uint256"
        }
      ],
      "name": "files",
      "outputs": [
        {
          "internalType": "uint256",
          "name": "id",
          "type": "uint256"
        },
        {
          "internalType": "string",
          "name": "cid",
          "type": "string"
        },
        {
          "internalType": "address",
          "name": "uploader",
          "type": "address"
        }
      ],
      "stateMutability": "view",
      "type": "function"
    },
    {
      "inputs": [
        {
          "internalType": "uint256",
          "name": "_amount",
          "type": "uint256"
        }
      ],
      "name": "ownerWithdraw",
      "outputs": [],
      "stateMutability": "nonpayable",
      "type": "function"
    },
    {
      "inputs": [
        {
          "internalType": "string",
          "name": "_file_cid",
          "type": "string"
        }
      ],
      "name": "uploadFile",
      "outputs": [
        {
          "internalType": "uint256",
          "name": "",
          "type": "uint256"
        }
      ],
      "stateMutability": "payable",
      "type": "function"
    },
    {
      "inputs": [
        {
          "internalType": "uint256",
          "name": "_amount",
          "type": "uint256"
        },
        {
          "internalType": "uint256",
          "name": "_file_id",
          "type": "uint256"
        }
      ],
      "name": "uploaderWithdraw",
      "outputs": [],
      "stateMutability": "nonpayable",
      "type": "function"
    },
    {
      "stateMutability": "payable",
      "type": "receive"
    }
  ],
  "bytecode": "0x60806040526000600155336000806101000a81548173ffffffffffffffffffffffffffffffffffffffff021916908373ffffffffffffffffffffffffffffffffffffffff160217905550611213806100586000396000f3fe6080604052600436106100595760003560e01c806333f707d114610065578063641b66e41461008e57806393df2738146100b9578063cb1cf146146100e9578063e37ffc3014610112578063f4c714b41461014257610060565b3661006057005b600080fd5b34801561007157600080fd5b5061008c60048036038101906100879190610a85565b610181565b005b34801561009a57600080fd5b506100a3610243565b6040516100b09190610da6565b60405180910390f35b6100d360048036038101906100ce9190610a85565b610249565b6040516100e09190610d22565b60405180910390f35b3480156100f557600080fd5b50610110600480360381019061010b9190610aae565b610475565b005b61012c60048036038101906101279190610a44565b61052e565b6040516101399190610da6565b60405180910390f35b34801561014e57600080fd5b5061016960048036038101906101649190610a85565b610773565b60405161017893929190610dc1565b60405180910390f35b60008054906101000a900473ffffffffffffffffffffffffffffffffffffffff1673ffffffffffffffffffffffffffffffffffffffff163373ffffffffffffffffffffffffffffffffffffffff16146101d957600080fd5b60008054906101000a900473ffffffffffffffffffffffffffffffffffffffff1673ffffffffffffffffffffffffffffffffffffffff166108fc829081150290604051600060405180830381858888f1935050505015801561023f573d6000803e3d6000fd5b5050565b60015481565b6060662386f26fc100003414610294576040517f08c379a000000000000000000000000000000000000000000000000000000000815260040161028b90610d64565b60405180910390fd5b6006600083815260200190815260200160002060030160009054906101000a900473ffffffffffffffffffffffffffffffffffffffff1673ffffffffffffffffffffffffffffffffffffffff166108fc661c6bf5263400009081150290604051600060405180830381858888f19350505050158015610317573d6000803e3d6000fd5b5060008054906101000a900473ffffffffffffffffffffffffffffffffffffffff1673ffffffffffffffffffffffffffffffffffffffff166108fc66071afd498d00009081150290604051600060405180830381858888f19350505050158015610385573d6000803e3d6000fd5b507f3f272bad4e56b85a8956653c74c2f721abcd0b57aa0f9248977cea8edf607ff5600660008481526020019081526020016000206040516103c79190610d84565b60405180910390a16006600083815260200190815260200160002060010180546103f090610fd3565b80601f016020809104026020016040519081016040528092919081815260200182805461041c90610fd3565b80156104695780601f1061043e57610100808354040283529160200191610469565b820191906000526020600020905b81548152906001019060200180831161044c57829003601f168201915b50505050509050919050565b6006600082815260200190815260200160002060030160009054906101000a900473ffffffffffffffffffffffffffffffffffffffff1673ffffffffffffffffffffffffffffffffffffffff163373ffffffffffffffffffffffffffffffffffffffff16146104e357600080fd5b3373ffffffffffffffffffffffffffffffffffffffff166108fc839081150290604051600060405180830381858888f19350505050158015610529573d6000803e3d6000fd5b505050565b600067016345785d8a0000341461057a576040517f08c379a000000000000000000000000000000000000000000000000000000000815260040161057190610d44565b60405180910390fd5b600180600082825461058c9190610ed5565b9250508190555060015460026000018190555081600260010190805190602001906105b8929190610845565b5033600260030160006101000a81548173ffffffffffffffffffffffffffffffffffffffff021916908373ffffffffffffffffffffffffffffffffffffffff16021790555060008054906101000a900473ffffffffffffffffffffffffffffffffffffffff1673ffffffffffffffffffffffffffffffffffffffff166108fc67016345785d8a00009081150290604051600060405180830381858888f1935050505015801561066b573d6000803e3d6000fd5b5060026006600060026000015481526020019081526020016000206000820154816000015560018201816001019080546106a490610fd3565b6106af9291906108cb565b5060028201816002019080546106c6929190610958565b506003820160009054906101000a900473ffffffffffffffffffffffffffffffffffffffff168160030160006101000a81548173ffffffffffffffffffffffffffffffffffffffff021916908373ffffffffffffffffffffffffffffffffffffffff1602179055509050507f9cc9010900c4f050041b4d3d9444fb45305ee30ad491f3292479a31cae9fb36560026040516107619190610d84565b60405180910390a16001549050919050565b600660205280600052604060002060009150905080600001549080600101805461079c90610fd3565b80601f01602080910402602001604051908101604052809291908181526020018280546107c890610fd3565b80156108155780601f106107ea57610100808354040283529160200191610815565b820191906000526020600020905b8154815290600101906020018083116107f857829003601f168201915b5050505050908060030160009054906101000a900473ffffffffffffffffffffffffffffffffffffffff16905083565b82805461085190610fd3565b90600052602060002090601f01602090048101928261087357600085556108ba565b82601f1061088c57805160ff19168380011785556108ba565b828001600101855582156108ba579182015b828111156108b957825182559160200191906001019061089e565b5b5090506108c791906109aa565b5090565b8280546108d790610fd3565b90600052602060002090601f0160209004810192826108f95760008555610947565b82601f1061090a5780548555610947565b8280016001018555821561094757600052602060002091601f016020900482015b8281111561094657825482559160010191906001019061092b565b5b50905061095491906109aa565b5090565b8280548282559060005260206000209081019282156109995760005260206000209182015b8281111561099857825482559160010191906001019061097d565b5b5090506109a691906109aa565b5090565b5b808211156109c35760008160009055506001016109ab565b5090565b60006109da6109d584610e24565b610dff565b9050828152602081018484840111156109f257600080fd5b6109fd848285610f91565b509392505050565b600082601f830112610a1657600080fd5b8135610a268482602086016109c7565b91505092915050565b600081359050610a3e816111c6565b92915050565b600060208284031215610a5657600080fd5b600082013567ffffffffffffffff811115610a7057600080fd5b610a7c84828501610a05565b91505092915050565b600060208284031215610a9757600080fd5b6000610aa584828501610a2f565b91505092915050565b60008060408385031215610ac157600080fd5b6000610acf85828601610a2f565b9250506020610ae085828601610a2f565b9150509250929050565b6000610af68383610b02565b60208301905092915050565b610b0b81610f55565b82525050565b610b1a81610f55565b82525050565b6000610b2b82610e7f565b610b358185610ea2565b9350610b4083610e55565b8060005b83811015610b7857610b55826110f7565b610b5f8882610aea565b9750610b6a83610e95565b925050600181019050610b44565b5085935050505092915050565b6000610b9082610e8a565b610b9a8185610ec4565b9350610baa818560208601610fa0565b610bb38161110a565b840191505092915050565b60008154610bcb81610fd3565b610bd58186610eb3565b94506001821660008114610bf05760018114610c0257610c35565b60ff1983168652602086019350610c35565b610c0b85610e6a565b60005b83811015610c2d57815481890152600182019150602081019050610c0e565b808801955050505b50505092915050565b6000610c4b602783610ec4565b9150610c5682611128565b604082019050919050565b6000610c6e602a83610ec4565b9150610c7982611177565b604082019050919050565b6000608083016000808401549050610c9b8161101f565b610ca86000870182610d04565b50600184018583036020870152610cbf8382610bbe565b925050600284018583036040870152610cd88382610b20565b92505060038401549050610ceb81611005565b610cf86060870182610b02565b50819250505092915050565b610d0d81610f87565b82525050565b610d1c81610f87565b82525050565b60006020820190508181036000830152610d3c8184610b85565b905092915050565b60006020820190508181036000830152610d5d81610c3e565b9050919050565b60006020820190508181036000830152610d7d81610c61565b9050919050565b60006020820190508181036000830152610d9e8184610c84565b905092915050565b6000602082019050610dbb6000830184610d13565b92915050565b6000606082019050610dd66000830186610d13565b8181036020830152610de88185610b85565b9050610df76040830184610b11565b949350505050565b6000610e09610e1a565b9050610e158282611039565b919050565b6000604051905090565b600067ffffffffffffffff821115610e3f57610e3e6110c8565b5b610e488261110a565b9050602081019050919050565b60008190508160005260206000209050919050565b60008190508160005260206000209050919050565b600081549050919050565b600081519050919050565b6000600182019050919050565b600082825260208201905092915050565b600082825260208201905092915050565b600082825260208201905092915050565b6000610ee082610f87565b9150610eeb83610f87565b9250827fffffffffffffffffffffffffffffffffffffffffffffffffffffffffffffffff03821115610f2057610f1f61106a565b5b828201905092915050565b600073ffffffffffffffffffffffffffffffffffffffff82169050919050565b6000819050919050565b6000610f6082610f67565b9050919050565b600073ffffffffffffffffffffffffffffffffffffffff82169050919050565b6000819050919050565b82818337600083830152505050565b60005b83811015610fbe578082015181840152602081019050610fa3565b83811115610fcd576000848401525b50505050565b60006002820490506001821680610feb57607f821691505b60208210811415610fff57610ffe611099565b5b50919050565b60006110186110138361111b565b610f2b565b9050919050565b600061103261102d8361111b565b610f4b565b9050919050565b6110428261110a565b810181811067ffffffffffffffff82111715611061576110606110c8565b5b80604052505050565b7f4e487b7100000000000000000000000000000000000000000000000000000000600052601160045260246000fd5b7f4e487b7100000000000000000000000000000000000000000000000000000000600052602260045260246000fd5b7f4e487b7100000000000000000000000000000000000000000000000000000000600052604160045260246000fd5b60006111038254611005565b9050919050565b6000601f19601f8301169050919050565b60008160001c9050919050565b7f302e3120657468657220697320726571756972656420746f2075706c6f61642060008201527f612066696c652e00000000000000000000000000000000000000000000000000602082015250565b7f302e303120656874657220697320726575716972656420746f20646f776e6c6f60008201527f616420612066696c652e00000000000000000000000000000000000000000000602082015250565b6111cf81610f87565b81146111da57600080fd5b5056fea26469706673582212206b099c4c43777c3fc350fc0a037378255bd28818f68ad191e341163c6df7268a64736f6c63430008040033",
  "linkReferences": {},
  "deployedLinkReferences": {}
}