{
  "_format": "hh-sol-artifact-1",
  "contractName": "Dwetransfer",
  "sourceName": "contracts/Dwetransfer.sol",
  "abi": [
    {
      "inputs": [],
      "stateMutability": "payable",
      "type": "constructor"
    },
    {
      "anonymous": false,
      "inputs": [
        {
          "components": [
            {
              "internalType": "uint256",
              "name": "id",
              "type": "uint256"
            },
            {
              "internalType": "string",
              "name": "cid",
              "type": "string"
            },
            {
              "internalType": "address[]",
              "name": "downloaders",
              "type": "address[]"
            },
            {
              "internalType": "address",
              "name": "uploader",
              "type": "address"
            }
          ],
          "indexed": false,
          "internalType": "struct Dwetransfer.File",
          "name": "file",
          "type": "tuple"
        }
      ],
      "name": "FileDownload",
      "type": "event"
    },
    {
      "anonymous": false,
      "inputs": [
        {
          "components": [
            {
              "internalType": "uint256",
              "name": "id",
              "type": "uint256"
            },
            {
              "internalType": "string",
              "name": "cid",
              "type": "string"
            },
            {
              "internalType": "address[]",
              "name": "downloaders",
              "type": "address[]"
            },
            {
              "internalType": "address",
              "name": "uploader",
              "type": "address"
            }
          ],
          "indexed": false,
          "internalType": "struct Dwetransfer.File",
          "name": "file",
          "type": "tuple"
        }
      ],
      "name": "FileUploaded",
      "type": "event"
    },
    {
      "inputs": [
        {
          "internalType": "uint256",
          "name": "_file_id",
          "type": "uint256"
        }
      ],
      "name": "downloadFile",
      "outputs": [
        {
          "internalType": "string",
          "name": "",
          "type": "string"
        }
      ],
      "stateMutability": "payable",
      "type": "function"
    },
    {
      "inputs": [
        {
          "internalType": "uint256",
          "name": "",
          "type": "uint256"
        }
      ],
      "name": "files",
      "outputs": [
        {
          "internalType": "uint256",
          "name": "id",
          "type": "uint256"
        },
        {
          "internalType": "string",
          "name": "cid",
          "type": "string"
        },
        {
          "internalType": "address",
          "name": "uploader",
          "type": "address"
        }
      ],
      "stateMutability": "view",
      "type": "function"
    },
    {
      "inputs": [
        {
          "internalType": "uint256",
          "name": "_file_id",
          "type": "uint256"
        },
        {
          "internalType": "string",
          "name": "_file_cid",
          "type": "string"
        }
      ],
      "name": "uploadFile",
      "outputs": [],
      "stateMutability": "payable",
      "type": "function"
    },
    {
      "stateMutability": "payable",
      "type": "receive"
    }
  ],
  "bytecode": "0x6080604052336000806101000a81548173ffffffffffffffffffffffffffffffffffffffff021916908373ffffffffffffffffffffffffffffffffffffffff160217905550610eb0806100536000396000f3fe6080604052600436106100385760003560e01c806393df273814610044578063f4c714b414610074578063fa4d14ce146100b35761003f565b3661003f57005b600080fd5b61005e600480360381019061005991906107d0565b6100cf565b60405161006b9190610a85565b60405180910390f35b34801561008057600080fd5b5061009b600480360381019061009691906107d0565b6102de565b6040516100aa93929190610b09565b60405180910390f35b6100cd60048036038101906100c891906107f9565b6103b0565b005b6060670de0b6b3a7640000341461011b576040517f08c379a000000000000000000000000000000000000000000000000000000000815260040161011290610ac7565b60405180910390fd5b6005600083815260200190815260200160002060030160009054906101000a900473ffffffffffffffffffffffffffffffffffffffff1673ffffffffffffffffffffffffffffffffffffffff166108fc670b1a2bc2ec5000009081150290604051600060405180830381858888f1935050505015801561019f573d6000803e3d6000fd5b503373ffffffffffffffffffffffffffffffffffffffff166108fc6702c68af0bb1400009081150290604051600060405180830381858888f193505050501580156101ee573d6000803e3d6000fd5b507f3f272bad4e56b85a8956653c74c2f721abcd0b57aa0f9248977cea8edf607ff5600560008481526020019081526020016000206040516102309190610ae7565b60405180910390a160056000838152602001908152602001600020600101805461025990610cc5565b80601f016020809104026020016040519081016040528092919081815260200182805461028590610cc5565b80156102d25780601f106102a7576101008083540402835291602001916102d2565b820191906000526020600020905b8154815290600101906020018083116102b557829003601f168201915b50505050509050919050565b600560205280600052604060002060009150905080600001549080600101805461030790610cc5565b80601f016020809104026020016040519081016040528092919081815260200182805461033390610cc5565b80156103805780601f1061035557610100808354040283529160200191610380565b820191906000526020600020905b81548152906001019060200180831161036357829003601f168201915b5050505050908060030160009054906101000a900473ffffffffffffffffffffffffffffffffffffffff16905083565b670de0b6b3a764000034146103fa576040517f08c379a00000000000000000000000000000000000000000000000000000000081526004016103f190610aa7565b60405180910390fd5b816001600001819055508060018001908051906020019061041c9291906105d1565b5033600160030160006101000a81548173ffffffffffffffffffffffffffffffffffffffff021916908373ffffffffffffffffffffffffffffffffffffffff16021790555060008054906101000a900473ffffffffffffffffffffffffffffffffffffffff1673ffffffffffffffffffffffffffffffffffffffff166108fc670de0b6b3a76400009081150290604051600060405180830381858888f193505050501580156104cf573d6000803e3d6000fd5b50600160056000600160000154815260200190815260200160002060008201548160000155600182018160010190805461050890610cc5565b610513929190610657565b50600282018160020190805461052a9291906106e4565b506003820160009054906101000a900473ffffffffffffffffffffffffffffffffffffffff168160030160006101000a81548173ffffffffffffffffffffffffffffffffffffffff021916908373ffffffffffffffffffffffffffffffffffffffff1602179055509050507f9cc9010900c4f050041b4d3d9444fb45305ee30ad491f3292479a31cae9fb36560016040516105c59190610ae7565b60405180910390a15050565b8280546105dd90610cc5565b90600052602060002090601f0160209004810192826105ff5760008555610646565b82601f1061061857805160ff1916838001178555610646565b82800160010185558215610646579182015b8281111561064557825182559160200191906001019061062a565b5b5090506106539190610736565b5090565b82805461066390610cc5565b90600052602060002090601f01602090048101928261068557600085556106d3565b82601f1061069657805485556106d3565b828001600101855582156106d357600052602060002091601f016020900482015b828111156106d25782548255916001019190600101906106b7565b5b5090506106e09190610736565b5090565b8280548282559060005260206000209081019282156107255760005260206000209182015b82811115610724578254825591600101919060010190610709565b5b5090506107329190610736565b5090565b5b8082111561074f576000816000905550600101610737565b5090565b600061076661076184610b6c565b610b47565b90508281526020810184848401111561077e57600080fd5b610789848285610c83565b509392505050565b600082601f8301126107a257600080fd5b81356107b2848260208601610753565b91505092915050565b6000813590506107ca81610e63565b92915050565b6000602082840312156107e257600080fd5b60006107f0848285016107bb565b91505092915050565b6000806040838503121561080c57600080fd5b600061081a858286016107bb565b925050602083013567ffffffffffffffff81111561083757600080fd5b61084385828601610791565b9150509250929050565b60006108598383610865565b60208301905092915050565b61086e81610c47565b82525050565b61087d81610c47565b82525050565b600061088e82610bc7565b6108988185610bea565b93506108a383610b9d565b8060005b838110156108db576108b882610dba565b6108c2888261084d565b97506108cd83610bdd565b9250506001810190506108a7565b5085935050505092915050565b60006108f382610bd2565b6108fd8185610c0c565b935061090d818560208601610c92565b61091681610dcd565b840191505092915050565b6000815461092e81610cc5565b6109388186610bfb565b94506001821660008114610953576001811461096557610998565b60ff1983168652602086019350610998565b61096e85610bb2565b60005b8381101561099057815481890152600182019150602081019050610971565b808801955050505b50505092915050565b60006109ae602983610c0c565b91506109b982610deb565b604082019050919050565b60006109d1602083610c0c565b91506109dc82610e3a565b602082019050919050565b60006080830160008084015490506109fe81610d11565b610a0b6000870182610a67565b50600184018583036020870152610a228382610921565b925050600284018583036040870152610a3b8382610883565b92505060038401549050610a4e81610cf7565b610a5b6060870182610865565b50819250505092915050565b610a7081610c79565b82525050565b610a7f81610c79565b82525050565b60006020820190508181036000830152610a9f81846108e8565b905092915050565b60006020820190508181036000830152610ac0816109a1565b9050919050565b60006020820190508181036000830152610ae0816109c4565b9050919050565b60006020820190508181036000830152610b0181846109e7565b905092915050565b6000606082019050610b1e6000830186610a76565b8181036020830152610b3081856108e8565b9050610b3f6040830184610874565b949350505050565b6000610b51610b62565b9050610b5d8282610d2b565b919050565b6000604051905090565b600067ffffffffffffffff821115610b8757610b86610d8b565b5b610b9082610dcd565b9050602081019050919050565b60008190508160005260206000209050919050565b60008190508160005260206000209050919050565b600081549050919050565b600081519050919050565b6000600182019050919050565b600082825260208201905092915050565b600082825260208201905092915050565b600082825260208201905092915050565b600073ffffffffffffffffffffffffffffffffffffffff82169050919050565b6000819050919050565b6000610c5282610c59565b9050919050565b600073ffffffffffffffffffffffffffffffffffffffff82169050919050565b6000819050919050565b82818337600083830152505050565b60005b83811015610cb0578082015181840152602081019050610c95565b83811115610cbf576000848401525b50505050565b60006002820490506001821680610cdd57607f821691505b60208210811415610cf157610cf0610d5c565b5b50919050565b6000610d0a610d0583610dde565b610c1d565b9050919050565b6000610d24610d1f83610dde565b610c3d565b9050919050565b610d3482610dcd565b810181811067ffffffffffffffff82111715610d5357610d52610d8b565b5b80604052505050565b7f4e487b7100000000000000000000000000000000000000000000000000000000600052602260045260246000fd5b7f4e487b7100000000000000000000000000000000000000000000000000000000600052604160045260246000fd5b6000610dc68254610cf7565b9050919050565b6000601f19601f8301169050919050565b60008160001c9050919050565b7f596f75206e656564206174206c65617374203120657468657220696e20796f7560008201527f72206163636f756e740000000000000000000000000000000000000000000000602082015250565b7f596f75206e65656420746f2070617920312065746865722065786163746c792e600082015250565b610e6c81610c79565b8114610e7757600080fd5b5056fea2646970667358221220b20f81dae2c571d89cc2ee3d61d8a8d483f63a327ee14bf545196c91a97fcd1964736f6c63430008040033",
  "linkReferences": {},
  "deployedLinkReferences": {}
}