{
  "_format": "hh-sol-artifact-1",
  "contractName": "Dwetransfer",
  "sourceName": "contracts/Dwetransfer.sol",
  "abi": [
    {
      "inputs": [],
      "stateMutability": "payable",
      "type": "constructor"
    },
    {
      "anonymous": false,
      "inputs": [
        {
          "indexed": false,
          "internalType": "string",
          "name": "cid",
          "type": "string"
        }
      ],
      "name": "FileGetCid",
      "type": "event"
    },
    {
      "anonymous": false,
      "inputs": [
        {
          "indexed": false,
          "internalType": "uint256",
          "name": "fileId",
          "type": "uint256"
        }
      ],
      "name": "FileIdCreated",
      "type": "event"
    },
    {
      "inputs": [
        {
          "internalType": "uint256",
          "name": "_file_id",
          "type": "uint256"
        }
      ],
      "name": "downloadFile",
      "outputs": [],
      "stateMutability": "payable",
      "type": "function"
    },
    {
      "inputs": [
        {
          "internalType": "uint256",
          "name": "",
          "type": "uint256"
        }
      ],
      "name": "files",
      "outputs": [
        {
          "internalType": "uint256",
          "name": "id",
          "type": "uint256"
        },
        {
          "internalType": "string",
          "name": "cid",
          "type": "string"
        },
        {
          "internalType": "address",
          "name": "uploader",
          "type": "address"
        }
      ],
      "stateMutability": "view",
      "type": "function"
    },
    {
      "inputs": [
        {
          "internalType": "uint256",
          "name": "_amount",
          "type": "uint256"
        }
      ],
      "name": "ownerWithdraw",
      "outputs": [],
      "stateMutability": "nonpayable",
      "type": "function"
    },
    {
      "inputs": [
        {
          "internalType": "string",
          "name": "_filecid",
          "type": "string"
        }
      ],
      "name": "uploadFile",
      "outputs": [],
      "stateMutability": "payable",
      "type": "function"
    },
    {
      "inputs": [
        {
          "internalType": "uint256",
          "name": "_amount",
          "type": "uint256"
        },
        {
          "internalType": "uint256",
          "name": "_file_id",
          "type": "uint256"
        }
      ],
      "name": "uploaderWithdraw",
      "outputs": [],
      "stateMutability": "nonpayable",
      "type": "function"
    },
    {
      "stateMutability": "payable",
      "type": "receive"
    }
  ],
  "bytecode": "0x60806040526000600155336000806101000a81548173ffffffffffffffffffffffffffffffffffffffff021916908373ffffffffffffffffffffffffffffffffffffffff160217905550610efe806100586000396000f3fe60806040526004361061004e5760003560e01c806333f707d11461005a57806393df273814610083578063cb1cf1461461009f578063e37ffc30146100c8578063f4c714b4146100e457610055565b3661005557005b600080fd5b34801561006657600080fd5b50610081600480360381019061007c919061097a565b610123565b005b61009d6004803603810190610098919061097a565b6101e5565b005b3480156100ab57600080fd5b506100c660048036038101906100c191906109a3565b610372565b005b6100e260048036038101906100dd9190610939565b61042b565b005b3480156100f057600080fd5b5061010b6004803603810190610106919061097a565b610668565b60405161011a93929190610b79565b60405180910390f35b60008054906101000a900473ffffffffffffffffffffffffffffffffffffffff1673ffffffffffffffffffffffffffffffffffffffff163373ffffffffffffffffffffffffffffffffffffffff161461017b57600080fd5b60008054906101000a900473ffffffffffffffffffffffffffffffffffffffff1673ffffffffffffffffffffffffffffffffffffffff166108fc829081150290604051600060405180830381858888f193505050501580156101e1573d6000803e3d6000fd5b5050565b670de0b6b3a7640000341461022f576040517f08c379a000000000000000000000000000000000000000000000000000000000815260040161022690610b3e565b60405180910390fd5b6006600082815260200190815260200160002060030160009054906101000a900473ffffffffffffffffffffffffffffffffffffffff1673ffffffffffffffffffffffffffffffffffffffff166108fc670b1a2bc2ec5000009081150290604051600060405180830381858888f193505050501580156102b3573d6000803e3d6000fd5b5060008054906101000a900473ffffffffffffffffffffffffffffffffffffffff1673ffffffffffffffffffffffffffffffffffffffff166108fc6702c68af0bb1400009081150290604051600060405180830381858888f19350505050158015610322573d6000803e3d6000fd5b507f3c2132cf710f0ca0de34820196b533fa064c602a7dabe350bfd8dde4d5e8130e600660008381526020019081526020016000206001016040516103679190610afc565b60405180910390a150565b6006600082815260200190815260200160002060030160009054906101000a900473ffffffffffffffffffffffffffffffffffffffff1673ffffffffffffffffffffffffffffffffffffffff163373ffffffffffffffffffffffffffffffffffffffff16146103e057600080fd5b3373ffffffffffffffffffffffffffffffffffffffff166108fc839081150290604051600060405180830381858888f19350505050158015610426573d6000803e3d6000fd5b505050565b670de0b6b3a76400003414610475576040517f08c379a000000000000000000000000000000000000000000000000000000000815260040161046c90610b1e565b60405180910390fd5b60018060008282546104879190610c3e565b9250508190555060015460026000018190555080600260010190805190602001906104b392919061073a565b5033600260030160006101000a81548173ffffffffffffffffffffffffffffffffffffffff021916908373ffffffffffffffffffffffffffffffffffffffff16021790555060008054906101000a900473ffffffffffffffffffffffffffffffffffffffff1673ffffffffffffffffffffffffffffffffffffffff166108fc670de0b6b3a76400009081150290604051600060405180830381858888f19350505050158015610566573d6000803e3d6000fd5b50600260066000600260000154815260200190815260200160002060008201548160000155600182018160010190805461059f90610d12565b6105aa9291906107c0565b5060028201816002019080546105c192919061084d565b506003820160009054906101000a900473ffffffffffffffffffffffffffffffffffffffff168160030160006101000a81548173ffffffffffffffffffffffffffffffffffffffff021916908373ffffffffffffffffffffffffffffffffffffffff1602179055509050507f2a022ceccc848077b9a0812dc4cf2923ba0fd793ff5ee63f3ee0fdc7e9d2ce5460015460405161065d9190610b5e565b60405180910390a150565b600660205280600052604060002060009150905080600001549080600101805461069190610d12565b80601f01602080910402602001604051908101604052809291908181526020018280546106bd90610d12565b801561070a5780601f106106df5761010080835404028352916020019161070a565b820191906000526020600020905b8154815290600101906020018083116106ed57829003601f168201915b5050505050908060030160009054906101000a900473ffffffffffffffffffffffffffffffffffffffff16905083565b82805461074690610d12565b90600052602060002090601f01602090048101928261076857600085556107af565b82601f1061078157805160ff19168380011785556107af565b828001600101855582156107af579182015b828111156107ae578251825591602001919060010190610793565b5b5090506107bc919061089f565b5090565b8280546107cc90610d12565b90600052602060002090601f0160209004810192826107ee576000855561083c565b82601f106107ff578054855561083c565b8280016001018555821561083c57600052602060002091601f016020900482015b8281111561083b578254825591600101919060010190610820565b5b509050610849919061089f565b5090565b82805482825590600052602060002090810192821561088e5760005260206000209182015b8281111561088d578254825591600101919060010190610872565b5b50905061089b919061089f565b5090565b5b808211156108b85760008160009055506001016108a0565b5090565b60006108cf6108ca84610bdc565b610bb7565b9050828152602081018484840111156108e757600080fd5b6108f2848285610cd0565b509392505050565b600082601f83011261090b57600080fd5b813561091b8482602086016108bc565b91505092915050565b60008135905061093381610eb1565b92915050565b60006020828403121561094b57600080fd5b600082013567ffffffffffffffff81111561096557600080fd5b610971848285016108fa565b91505092915050565b60006020828403121561098c57600080fd5b600061099a84828501610924565b91505092915050565b600080604083850312156109b657600080fd5b60006109c485828601610924565b92505060206109d585828601610924565b9150509250929050565b6109e881610c94565b82525050565b60006109f982610c22565b610a038185610c2d565b9350610a13818560208601610cdf565b610a1c81610e02565b840191505092915050565b60008154610a3481610d12565b610a3e8186610c2d565b94506001821660008114610a595760018114610a6b57610a9e565b60ff1983168652602086019350610a9e565b610a7485610c0d565b60005b83811015610a9657815481890152600182019150602081019050610a77565b808801955050505b50505092915050565b6000610ab4602583610c2d565b9150610abf82610e13565b604082019050919050565b6000610ad7602883610c2d565b9150610ae282610e62565b604082019050919050565b610af681610cc6565b82525050565b60006020820190508181036000830152610b168184610a27565b905092915050565b60006020820190508181036000830152610b3781610aa7565b9050919050565b60006020820190508181036000830152610b5781610aca565b9050919050565b6000602082019050610b736000830184610aed565b92915050565b6000606082019050610b8e6000830186610aed565b8181036020830152610ba081856109ee565b9050610baf60408301846109df565b949350505050565b6000610bc1610bd2565b9050610bcd8282610d44565b919050565b6000604051905090565b600067ffffffffffffffff821115610bf757610bf6610dd3565b5b610c0082610e02565b9050602081019050919050565b60008190508160005260206000209050919050565b600081519050919050565b600082825260208201905092915050565b6000610c4982610cc6565b9150610c5483610cc6565b9250827fffffffffffffffffffffffffffffffffffffffffffffffffffffffffffffffff03821115610c8957610c88610d75565b5b828201905092915050565b6000610c9f82610ca6565b9050919050565b600073ffffffffffffffffffffffffffffffffffffffff82169050919050565b6000819050919050565b82818337600083830152505050565b60005b83811015610cfd578082015181840152602081019050610ce2565b83811115610d0c576000848401525b50505050565b60006002820490506001821680610d2a57607f821691505b60208210811415610d3e57610d3d610da4565b5b50919050565b610d4d82610e02565b810181811067ffffffffffffffff82111715610d6c57610d6b610dd3565b5b80604052505050565b7f4e487b7100000000000000000000000000000000000000000000000000000000600052601160045260246000fd5b7f4e487b7100000000000000000000000000000000000000000000000000000000600052602260045260246000fd5b7f4e487b7100000000000000000000000000000000000000000000000000000000600052604160045260246000fd5b6000601f19601f8301169050919050565b7f3120657468657220697320726571756972656420746f2075706c6f616420612060008201527f66696c652e000000000000000000000000000000000000000000000000000000602082015250565b7f313020656874657220697320726575716972656420746f20646f776e6c6f616460008201527f20612066696c652e000000000000000000000000000000000000000000000000602082015250565b610eba81610cc6565b8114610ec557600080fd5b5056fea26469706673582212205d532eb12ff1f1bead13f7b2fd59b396ddf8e46850889bdd7338f4c070b4745e64736f6c63430008040033",
  "linkReferences": {},
  "deployedLinkReferences": {}
}